:1000000008308A00002800008A1D0A128A190A1680
:100010008A11831A0F28A400030EA5001428831246
:10002000A400030EA500A5140A1E8A110A1A8A1537
:100030000A120A08AB008A018313A40E0408A60062
:100040002008A7002108A8002208A9002308AA0068
:1000500083128B1E2D280B194028260884002708A0
:10006000A0002808A1002908A2002A08A3002B0844
:100070008A00250E83008312240EA518831609001A
:100080008A11422864308100831687018312870118
:10009000F00A01307002FA3E03189228063E9528B5
:1000A00054087F398316AE0083128600831607102A
:1000B000831207149228550880388316AE008312E5
:1000C00086008316871083128714922856087F397A
:1000D0008316AE008312860083160711831207155C
:1000E000922857087F398316AE0083128600831644
:1000F000871183128715922858087F398316AE001E
:100100008312860083160712831207169228590855
:100110007F398316AE0083128600831687128312FE
:100120008716F0010B118A112D280A108A100A1166
:10013000820750285B28662871287C288728760843
:100140000739A000760CA100A10CA10C1F30A1055D
:10015000210878078400A101A10AA00AB028A10DF6
:10016000A00BAF28F7080319B82821088004BB2882
:10017000A1092108800508007630840000080319D1
:10018000CE280230A100A001A00BC428A10BC328D7
:100190009730A000A00BCA28800BC1280800710866
:1001A000F200831605108312051083168510831242
:1001B00085107208F6000130F700F8019F207208E0
:1001C000F600F7018030F8009F20C830F600BC2010
:1001D0007108F2007208F600F701F8019F2072081A
:1001E000F600F7018030F8009F200130F600BC20B7
:1001F000F30173080F3C031C132983168514831223
:1002000085180429031005290314F40DF50D831630
:100210000510831205140C2983160510831205108E
:100220001129F30AF9282C1074192C140130F60046
:10023000BC207208F6000130F700F8019F20720818
:10024000F600F7018030F8009F207408A1007508BF
:10025000A2002208F3002108F2007308F5007208DA
:10026000F400750CA300740CA200A30CA20CA30C48
:10027000A20C1F30A3052208A0000F30A3052208FE
:10028000A1002308A2002208F3002108F20073084D
:10029000F5007208F4007508F7007408F6008E3057
:1002A000A0007708A1007608A200A301A108031D01
:1002B00063292208A100A2010830A002A108031DA1
:1002C0006329A0016B290310A11B6A29A20DA10DAE
:1002D000A0036329A1132308F9002208F8002108CC
:1002E000F7002008F6007908FD007808FC00770880
:1002F000FB007608FA0068308316A3005A30A2008B
:100300000130A1008030A00083127A080319702AFE
:100310008316A8002008031D8F298312702AA802C3
:10032000031C99297F30A807031C98298312702A7F
:10033000A3298130A80203189F298312702A031D64
:10034000A3298312702A28088312A000A101A20108
:10035000A3018316A70183127B088316A600A617A4
:1003600083127C088316A50083127D088316A400DF
:100370001930A8002308A4020318CE290130A502D1
:100380000318CE29A6020318CE29A7020318CE29E6
:10039000A70AA60AA50A2308A407022A2208A5027A
:1003A0000318E9290130A6020318E929A702031856
:1003B000E929A70AA60A2208A5072308A407031CFF
:1003C000022AA50A031D022AA60A031D022AA70A59
:1003D000022A21088038A6020318FF290130A7024B
:1003E0000318FF29A70A21088038A6072208A507B5
:1003F000031CDD29A60A031DDD29A70ADD298312B6
:1004000023148316A80B052A122A0310A40DA50D88
:10041000A60DA70D03108312A30DA20DA10D831627
:10042000A90DBA29291C1C2A03108312A10CA20CA5
:10043000A30C8316A90C212A8312A0030319702A86
:100440008316A91B4A2A0310A40DA50DA60DA70DFE
:100450002308A4020318362A0130A5020318362AFD
:10046000A6020318362AA702031C612A2208A50245
:100470000318412A0130A6020318412AA702031CCF
:10048000612A21088038A60203184A2A0130A702EF
:10049000031C612A8312A30A0319502A8316612AB6
:1004A000A20A0319552A8316612AA10A03195A2A96
:1004B0008316612AA00A0319702AA10CA20CA30CAE
:1004C000831683127B088316A8002108A806A81F9C
:1004D0006D2A8312A117742A83168312A113742A1A
:1004E000A001A101A201A3012308F9002208F8003C
:1004F0002108F7002008F60083147908FD00780829
:10050000FC007708FB007608FA008316A301A2011D
:100510004830A1008330A00080308318A106A601D6
:10052000A70183127B088316A5002108A506831264
:100530007A080319A12B8316A4008312A000831646
:1005400020080319AD2BA4020319372B031CEA2A38
:100550002108AA00AA172208A9002308A800A701B9
:100560000310AA0CA90CA80CA70CA40BAF2AA51F5A
:10057000BC2A2614CD2B2610241026167D3084008C
:10058000E22B2612A51BD02A241CDD2AAA0CA90CBA
:10059000A80CA70C8312A00A0319C72B8316DD2A07
:1005A000AA1BE02A0310A70DA80DA90DAA0D8312FE
:1005B000A0030319C72B8316D02A26175A2B2613FC
:1005C00083127B088316A500A51FE82AAA17BB2B58
:1005D000AA13BB2B2008A4008312A0007A0883165C
:1005E000A40283127B088316AA00AA1783127C0830
:1005F0008316A90083127D088316A800A7010310A3
:10060000AA0CA90CA80CA70CA40BFE2AA51F0B2B47
:10061000A614CD2BA6102410A616A3308400E22B1E
:10062000A612A51B1F2B241C2C2BAA0CA90CA80C52
:10063000A70C8312A00A0319C72B83162C2BAA1B05
:100640002F2B0310A70DA80DA90DAA0D8312A0032F
:100650000319C72B83161F2BA6175A2BA613210885
:10066000A500A11F352BAA17BB2BAA13BB2B210852
:10067000AA00AA172208A9002308A800A51F442B36
:10068000AA132615CD2B2611A70124107D30840036
:10069000E22BA51B722B83127B088316A500241C5A
:1006A0005A2BAA0CA90CA80CA70C8312A00A031998
:1006B000C72B8316A71F6D2BA80A031D6D2BA90A34
:1006C000031D6D2BAA0A031D6D2BAA0CA90CA80CE7
:1006D0008312A00A0319C72B8316261BDF2AA61B29
:1006E0002E2B9A2B8030AA06AA1F7A2BCD2B2108FD
:1006F000A5008B2B83127B088316A500AA08031D77
:100700008B2BA908031D8B2BA808031D8B2B831291
:10071000A0018316BB2BAA1B9A2B0310A70DA80DB3
:10072000A90DAA0D8312A00B962B982B83168B2B49
:10073000C72B8316A51F9E2BAA17BB2BAA13BB2B57
:100740008312831620088312A00083162108AA00B2
:100750002208A9002308A800BB2B83127A08A00056
:100760007B088316AA0083127C088316A9008312D3
:100770007D088316A8002A088312A1008316290881
:100780008312A200831628088312A300012CA00163
:10079000A101A201A301012C8316A701A809A9099F
:1007A000AA09A709A70A031DDB2BA80A031DDB2B37
:1007B000A90A0319AA0A2618BB2AA6180A2B261961
:1007C000432B772B0008A807031CEC2BA90A031D59
:1007D000EC2BAA0A0319241484030008A907031C9C
:1007E000F42BAA0A0319241484030008801F803AFA
:1007F000AA0703182414261AC12AA61A102B492B5B
:1008000083120800770879068039FB00F71F0D2C4A
:10081000F609F709F60A0319F70AF91F142CF80963
:10082000F909F80A0319F90AA101A201A001A3011B
:100830007908031D1E2C78080319382C1030FA0093
:100840000310F60DF70DA00DA30D79082302031D6B
:100850002B2C78082002031C342C7808A002031CDF
:10086000A3037908A3020314A10DA20DFA0B202CF7
:10087000FB1F3F2CA109A209A10A0319A20A080023
:10088000730B712C7208F7007108F600F9010A3039
:10089000F80002242208F5002108F4002208F700DD
:1008A0002108F600F9010A30F80002244030200740
:1008B00084000008D4007208F7007108F600F901FE
:1008C0000A30F80002244030200784000008D500D8
:1008D0004A08D6004A08D7005108D8004108D90074
:1008E000092D7308023C031DA42C7208F70071083F
:1008F000F600F9010A30F80002242208F500210868
:10090000F4002208F7002108F600F9010A30F80087
:1009100002244030200784000008D4007208F70049
:100920007108F600F9010A30F8000224403020076F
:1009300084000008D5004A08D6004A08D7005108AC
:10094000D8004208D900092D7308033C031DD72C99
:100950007208F7007108F600F9010A30F800022465
:100960002208F5002108F4002208F7002108F6000B
:10097000F9010A30F8000224403020078400000802
:10098000D4007208F7007108F600F9010A30F80087
:1009900002244030200784000008D5004A08D60011
:1009A0004A08D7005308D8004108D900092D730818
:1009B000043C031D092D7208F7007108F600F901C7
:1009C0000A30F80002242208F5002108F400220869
:1009D000F7002108F600F9010A30F800022440303F
:1009E000200784000008D4007208F7007108F600A0
:1009F000F9010A30F8000224403020078400000882
:100A0000D5004A08D6004A08D7005308D800420843
:100A1000D9000800071B0F2DE20A0319E30A620838
:100A2000A0006308A3002308031D192DA0080319C3
:100A30002F2D2308031D202D0130200203193E2DE8
:100A40002308031D272D023020020319932D2308AC
:100A5000031D2E2D033020020319E72D212E4A08F5
:100A6000D70030303802403E84000008D4003030D7
:100A70003902403E84000008D500212E871B662DD8
:100A8000871B512DEC0A0319ED0A6D08873C0318EA
:100A9000502DFF3A031D4F2D6C08B73C031C512D00
:100AA000402DED01EC01DE0A0319DF0ADF1B652D85
:100AB000DF08031D5F2D5E08623C0318652DDE080C
:100AC000031D642DDF08031D00308B2D85198B2D30
:100AD0008519792DEC0A0319ED0A6D08873C031876
:100AE000782DFF3A031D772D6C08B73C031C792D38
:100AF000682DED01EC015E080319DF03DE03DF1B47
:100B0000882DDF08031D8B2D5E08013C031C8B2DF7
:100B1000DF010130DE005F08F2005E08F100033003
:100B2000F3004024212E871BBB2D871BA62DEE0A28
:100B30000319EF0A6F08873C0318A52DFF3A031D20
:100B4000A42D6E08B73C031CA62D952DEF01EE01D8
:100B5000E00A0319E10AE11BBA2DE108031DB42DD7
:100B60006008623C0318BA2DE008031DB92DE108A6
:100B7000031D0030DF2D8519DF2D8519CE2DEE0ADE
:100B80000319EF0A6F08873C0318CD2DFF3A031DA8
:100B9000CC2D6E08B73C031CCE2DBD2DEF01EE0110
:100BA00060080319E103E003E11BDD2DE108031DEB
:100BB000DF2D6008013C031CDF2DE101E00161082D
:100BC000F2006008F1000430F3004024212EDF1F02
:100BD000EC2DE11FF82DEE2DE11B0C2E5F086102BC
:100BE000031C0C2E031DF82D5E086002031C0C2E46
:100BF0004D08D4004F08D5004F08D6004A08D7004A
:100C00004A08D8004A08D9000430F100FA30F6004A
:100C1000BC20F10B062E1F2E4A08D4004A08D5002E
:100C20004A08D6004A08D7004A08D8004A08D9001E
:100C30000430F100FA30F600BC20F10B1A2EE3016B
:100C4000E201071F212E8A15C628A001A101740800
:100C500003107518A007A00CA10CF518A007A00C94
:100C6000A10C7519A007A00CA10CF519A007A00CE8
:100C7000A10C751AA007A00CA10CF51AA007A00CD6
:100C8000A10C751BA007A00CA10CF51BA007A00CC4
:100C9000A10C08002A30F100CF202308F40022081C
:100CA000F3002108F2002008F1008E30A000710846
:100CB000A0027208A2007308A100A217A0080319DD
:100CC0006C2E0310A208031D682EA10803196C2EB8
:100CD000A20CA10CA00B612EF21F732EA109A20978
:100CE000A10A0319A20A2208E5002108E400650808
:100CF000F7006408F600F9016430F80002242208C5
:100D0000F2002108F1002208F7002108F600F9019D
:100D10000A30F80002242308F20030302007A10036
:100D20002308A3000318A30A2108B5006508F700EB
:100D30006408F600F9010A30F80002242208F200E3
:100D40002108F1002208F7002108F600F9010A3015
:100D5000F80002242308F20030302007A100230805
:100D6000A3000318A30A2108B6006508F700640869
:100D7000F600F9010A30F80002242308F2003030AE
:100D80002007A1002308A3000318A30A2108B70025
:100D900030303502F200F4006430F50025262108D9
:100DA000F10030303602F300F4000A30F500252659
:100DB0002108F107303037027107A301E40023084E
:100DC000E5008A15C928DB1FE82EE51FF42EEA2E60
:100DD000E51BF92E5B086502031CF92E031DF42E9A
:100DE0005A086402031CF92E831685108312851499
:100DF0000E2FE51FFE2EDD1F0A2F002FDD1B0E2FED
:100E000065085D02031C0E2F031D0A2F64085C0297
:100E1000031C0E2F8316851083128510DF1F132FDE
:100E2000E71F1F2F152FE71B242F5F086702031CE6
:100E3000242F031D1F2F5E086602031C242F831618
:100E4000051183120515392FE71F292FE11F352FB3
:100E50002B2FE11B392F67086102031C392F031D5B
:100E6000352F66086002031C392F83160511831283
:060E700005118A15CC28D3
:060FEA00190014003200A2
:0A0FF00028000000000000000000CF
:1010000003081F3983000730AE00F530AD0007300C
:10101000B000F630AF000730B200F730B100073053
:10102000B400F830B300E301E201E901E801EB01AB
:10103000EA01ED01EC01EF01EE01F00183161F144E
:101040009F141F153F308312C0000630C1005B3073
:10105000C2004F30C3006630C4006D30C5007D3023
:10106000C6000730C7007F30C8006F30C900C030ED
:10107000CA007930CB007830CC005C30CD005430E1
:10108000CE007130CF004030D0007830D1007330C6
:10109000D200F630D3002D0803178D0003132E085D
:1010A00003178F0083168C170C14000000008312A6
:1010B0000E080313A30003170C080313DA00230818
:1010C000DB002F0803178D000313300803178F0070
:1010D00083168C170C140000000083120E080313F3
:1010E000A30003170C080313DC002308DD003108FC
:1010F00003178D000313320803178F0083168C1714
:101100000C140000000083120E080313A300031741
:101110000C080313DE002308DF00330803178D00DB
:101120000313340803178F0083168C170C14000068
:10113000000083120E080313A30003170C08031307
:10114000E0002308E1000030831686001F149F147E
:101150001F150108C03906388100803083128100D4
:101160008B1683160C10C03083128B042A30F100CA
:101170008A11CF208A150430F100FA30F6008A1166
:10118000BC208A15F10BBD288A110A2D8A158A11F7
:101190004A2E8A158A11E32E8A150A30F6008A1122
:0811A000BC208A15C42863007D
:02400E00F23F7F
:00000001FF
;PIC16F73
;CRC=7FDD  CREATED="04-Mar-23 21:27"
